{
  "contractName": "Ethbay",
  "abi": [
    {
      "inputs": [],
      "payable": false,
      "stateMutability": "nonpayable",
      "type": "constructor"
    },
    {
      "anonymous": false,
      "inputs": [
        {
          "indexed": false,
          "internalType": "uint256",
          "name": "id",
          "type": "uint256"
        },
        {
          "indexed": false,
          "internalType": "string",
          "name": "patientName",
          "type": "string"
        },
        {
          "indexed": false,
          "internalType": "uint256",
          "name": "age",
          "type": "uint256"
        },
        {
          "indexed": false,
          "internalType": "uint256",
          "name": "fee",
          "type": "uint256"
        }
      ],
      "name": "cancelAppointment",
      "type": "event"
    },
    {
      "anonymous": false,
      "inputs": [
        {
          "indexed": false,
          "internalType": "uint256",
          "name": "id",
          "type": "uint256"
        },
        {
          "indexed": false,
          "internalType": "string",
          "name": "patientName",
          "type": "string"
        },
        {
          "indexed": false,
          "internalType": "uint256",
          "name": "age",
          "type": "uint256"
        },
        {
          "indexed": false,
          "internalType": "uint256",
          "name": "fee",
          "type": "uint256"
        }
      ],
      "name": "makeAppointment",
      "type": "event"
    },
    {
      "constant": true,
      "inputs": [
        {
          "internalType": "address",
          "name": "",
          "type": "address"
        }
      ],
      "name": "Appointments",
      "outputs": [
        {
          "internalType": "uint256",
          "name": "id",
          "type": "uint256"
        },
        {
          "internalType": "string",
          "name": "patientName",
          "type": "string"
        },
        {
          "internalType": "uint256",
          "name": "age",
          "type": "uint256"
        },
        {
          "internalType": "uint256",
          "name": "fee",
          "type": "uint256"
        }
      ],
      "payable": false,
      "stateMutability": "view",
      "type": "function"
    },
    {
      "constant": true,
      "inputs": [],
      "name": "appointCount",
      "outputs": [
        {
          "internalType": "uint256",
          "name": "",
          "type": "uint256"
        }
      ],
      "payable": false,
      "stateMutability": "view",
      "type": "function"
    },
    {
      "constant": true,
      "inputs": [],
      "name": "hospitalName",
      "outputs": [
        {
          "internalType": "string",
          "name": "",
          "type": "string"
        }
      ],
      "payable": false,
      "stateMutability": "view",
      "type": "function"
    },
    {
      "constant": true,
      "inputs": [
        {
          "internalType": "address",
          "name": "",
          "type": "address"
        }
      ],
      "name": "isAppointed",
      "outputs": [
        {
          "internalType": "bool",
          "name": "",
          "type": "bool"
        }
      ],
      "payable": false,
      "stateMutability": "view",
      "type": "function"
    },
    {
      "constant": true,
      "inputs": [
        {
          "internalType": "address",
          "name": "",
          "type": "address"
        }
      ],
      "name": "isRefunded",
      "outputs": [
        {
          "internalType": "bool",
          "name": "",
          "type": "bool"
        }
      ],
      "payable": false,
      "stateMutability": "view",
      "type": "function"
    },
    {
      "constant": false,
      "inputs": [
        {
          "internalType": "string",
          "name": "patientName",
          "type": "string"
        },
        {
          "internalType": "uint256",
          "name": "age",
          "type": "uint256"
        },
        {
          "internalType": "uint256",
          "name": "fee",
          "type": "uint256"
        }
      ],
      "name": "bookAppointment",
      "outputs": [],
      "payable": true,
      "stateMutability": "payable",
      "type": "function"
    },
    {
      "constant": false,
      "inputs": [],
      "name": "cancelTheAppointment",
      "outputs": [],
      "payable": false,
      "stateMutability": "nonpayable",
      "type": "function"
    },
    {
      "constant": false,
      "inputs": [
        {
          "internalType": "address payable",
          "name": "customer",
          "type": "address"
        }
      ],
      "name": "refund",
      "outputs": [],
      "payable": true,
      "stateMutability": "payable",
      "type": "function"
    }
  ],
  "bytecode": "0x608060405260006002553480156200001657600080fd5b506040518060400160405280601181526020017f454543453537314720484f53504954414c0000000000000000000000000000008152506000908051906020019062000064929190620000ac565b5033600160006101000a81548173ffffffffffffffffffffffffffffffffffffffff021916908373ffffffffffffffffffffffffffffffffffffffff1602179055506200015b565b828054600181600116156101000203166002900490600052602060002090601f016020900481019282601f10620000ef57805160ff191683800117855562000120565b8280016001018555821562000120579182015b828111156200011f57825182559160200191906001019062000102565b5b5090506200012f919062000133565b5090565b6200015891905b80821115620001545760008160009055506001016200013a565b5090565b90565b611536806200016b6000396000f3fe60806040526004361061007b5760003560e01c806394eda6e91161004e57806394eda6e914610283578063c7fc0a3c1461029a578063fa89401a14610369578063ffc9152e146103ad5761007b565b80630b189ea4146100805780631cae99e21461015f57806339eae13a146101ef5780633c85f2891461021a575b600080fd5b34801561008c57600080fd5b506100cf600480360360208110156100a357600080fd5b81019080803573ffffffffffffffffffffffffffffffffffffffff169060200190929190505050610416565b6040518085815260200180602001848152602001838152602001828103825285818151815260200191508051906020019080838360005b83811015610121578082015181840152602081019050610106565b50505050905090810190601f16801561014e5780820380516001836020036101000a031916815260200191505b509550505050505060405180910390f35b34801561016b57600080fd5b506101746104de565b6040518080602001828103825283818151815260200191508051906020019080838360005b838110156101b4578082015181840152602081019050610199565b50505050905090810190601f1680156101e15780820380516001836020036101000a031916815260200191505b509250505060405180910390f35b3480156101fb57600080fd5b5061020461057c565b6040518082815260200191505060405180910390f35b34801561022657600080fd5b506102696004803603602081101561023d57600080fd5b81019080803573ffffffffffffffffffffffffffffffffffffffff169060200190929190505050610582565b604051808215151515815260200191505060405180910390f35b34801561028f57600080fd5b506102986105a2565b005b610367600480360360608110156102b057600080fd5b81019080803590602001906401000000008111156102cd57600080fd5b8201836020820111156102df57600080fd5b8035906020019184600183028401116401000000008311171561030157600080fd5b91908080601f016020809104026020016040519081016040528093929190818152602001838380828437600081840152601f19601f820116905080830192505050505050509192919290803590602001909291908035906020019092919050505061097d565b005b6103ab6004803603602081101561037f57600080fd5b81019080803573ffffffffffffffffffffffffffffffffffffffff169060200190929190505050610f66565b005b3480156103b957600080fd5b506103fc600480360360208110156103d057600080fd5b81019080803573ffffffffffffffffffffffffffffffffffffffff1690602001909291905050506113b7565b604051808215151515815260200191505060405180910390f35b6003602052806000526040600020600091509050806000015490806001018054600181600116156101000203166002900480601f0160208091040260200160405190810160405280929190818152602001828054600181600116156101000203166002900480156104c85780601f1061049d576101008083540402835291602001916104c8565b820191906000526020600020905b8154815290600101906020018083116104ab57829003601f168201915b5050505050908060020154908060030154905084565b60008054600181600116156101000203166002900480601f0160208091040260200160405190810160405280929190818152602001828054600181600116156101000203166002900480156105745780601f1061054957610100808354040283529160200191610574565b820191906000526020600020905b81548152906001019060200180831161055757829003601f168201915b505050505081565b60025481565b60046020528060005260406000206000915054906101000a900460ff1681565b6000600460003373ffffffffffffffffffffffffffffffffffffffff1673ffffffffffffffffffffffffffffffffffffffff16815260200190815260200160002060009054906101000a900460ff169050600115158115151461066d576040517f08c379a000000000000000000000000000000000000000000000000000000000815260040180806020018281038252601d8152602001807f596f7520646f6e74206861766520616e79206170706f696e746d656e7400000081525060200191505060405180910390fd5b600160009054906101000a900473ffffffffffffffffffffffffffffffffffffffff1673ffffffffffffffffffffffffffffffffffffffff163373ffffffffffffffffffffffffffffffffffffffff161415610731576040517f08c379a000000000000000000000000000000000000000000000000000000000815260040180806020018281038252601d8152602001807f4f776e65722063616e6e6f7420626f6f6b206170706f696e746d656e7400000081525060200191505060405180910390fd5b6107396113d7565b600360003373ffffffffffffffffffffffffffffffffffffffff1673ffffffffffffffffffffffffffffffffffffffff16815260200190815260200160002060405180608001604052908160008201548152602001600182018054600181600116156101000203166002900480601f0160208091040260200160405190810160405280929190818152602001828054600181600116156101000203166002900480156108265780601f106107fb57610100808354040283529160200191610826565b820191906000526020600020905b81548152906001019060200180831161080957829003601f168201915b505050505081526020016002820154815260200160038201548152505090506040518060200160405280600081525081602001819052506000600460003373ffffffffffffffffffffffffffffffffffffffff1673ffffffffffffffffffffffffffffffffffffffff16815260200190815260200160002060006101000a81548160ff0219169083151502179055507f07c9c368f70f67b6d54415f663e7de7c939715793b172e3a2be800774b48709b81600001518260200151836040015184606001516040518085815260200180602001848152602001838152602001828103825285818151815260200191508051906020019080838360005b8381101561093c578082015181840152602081019050610921565b50505050905090810190601f1680156109695780820380516001836020036101000a031916815260200191505b509550505050505060405180910390a15050565b6000600460003373ffffffffffffffffffffffffffffffffffffffff1673ffffffffffffffffffffffffffffffffffffffff16815260200190815260200160002060009054906101000a900460ff1690506000151581151514610a48576040517f08c379a000000000000000000000000000000000000000000000000000000000815260040180806020018281038252601f8152602001807f596f7520616c7265616479206861766520616e206170706f696e746d656e740081525060200191505060405180910390fd5b6000845111610abf576040517f08c379a000000000000000000000000000000000000000000000000000000000815260040180806020018281038252601c8152602001807f50617469656e74204e616d652063616e6e6f7420626520656d7074790000000081525060200191505060405180910390fd5b60008311610b35576040517f08c379a000000000000000000000000000000000000000000000000000000000815260040180806020018281038252601c8152602001807f4167652073686f756c642062652067726561746572207468616e20300000000081525060200191505060405180910390fd5b60008211610bab576040517f08c379a000000000000000000000000000000000000000000000000000000000815260040180806020018281038252601c8152602001807f4665652073686f756c642062652067726561746572207468616e20300000000081525060200191505060405180910390fd5b81341015610c21576040517f08c379a00000000000000000000000000000000000000000000000000000000081526004018080602001828103825260208152602001807f56616c75652073686f756c642062652067726561746572207468616e2066656581525060200191505060405180910390fd5b600160009054906101000a900473ffffffffffffffffffffffffffffffffffffffff1673ffffffffffffffffffffffffffffffffffffffff163373ffffffffffffffffffffffffffffffffffffffff161415610ce5576040517f08c379a000000000000000000000000000000000000000000000000000000000815260040180806020018281038252601d8152602001807f4f776e65722063616e6e6f7420626f6f6b206170706f696e746d656e7400000081525060200191505060405180910390fd5b6001600460003373ffffffffffffffffffffffffffffffffffffffff1673ffffffffffffffffffffffffffffffffffffffff16815260200190815260200160002060006101000a81548160ff0219169083151502179055506001600254016002819055506040518060800160405280600254815260200185815260200184815260200183815250600360003373ffffffffffffffffffffffffffffffffffffffff1673ffffffffffffffffffffffffffffffffffffffff168152602001908152602001600020600082015181600001556020820151816001019080519060200190610dd19291906113ff565b506040820151816002015560608201518160030155905050600160009054906101000a900473ffffffffffffffffffffffffffffffffffffffff1673ffffffffffffffffffffffffffffffffffffffff166108fc349081150290604051600060405180830381858888f19350505050158015610e51573d6000803e3d6000fd5b506000600560003373ffffffffffffffffffffffffffffffffffffffff1673ffffffffffffffffffffffffffffffffffffffff16815260200190815260200160002060006101000a81548160ff0219169083151502179055507f59a80b6381d791f76cbdce0afb62092fc988684ae906cda4d9fbd24747f2248f6002548585856040518085815260200180602001848152602001838152602001828103825285818151815260200191508051906020019080838360005b83811015610f23578082015181840152602081019050610f08565b50505050905090810190601f168015610f505780820380516001836020036101000a031916815260200191505b509550505050505060405180910390a150505050565b6000600460008373ffffffffffffffffffffffffffffffffffffffff1673ffffffffffffffffffffffffffffffffffffffff16815260200190815260200160002060009054906101000a900460ff1690506000600560008473ffffffffffffffffffffffffffffffffffffffff1673ffffffffffffffffffffffffffffffffffffffff16815260200190815260200160002060009054906101000a900460ff1690506110106113d7565b600360008573ffffffffffffffffffffffffffffffffffffffff1673ffffffffffffffffffffffffffffffffffffffff16815260200190815260200160002060405180608001604052908160008201548152602001600182018054600181600116156101000203166002900480601f0160208091040260200160405190810160405280929190818152602001828054600181600116156101000203166002900480156110fd5780601f106110d2576101008083540402835291602001916110fd565b820191906000526020600020905b8154815290600101906020018083116110e057829003601f168201915b505050505081526020016002820154815260200160038201548152505090506000151583151514611196576040517f08c379a000000000000000000000000000000000000000000000000000000000815260040180806020018281038252601e8152602001807f596f7520646964206e6f742063616e63656c206170706f696e746d656e74000081525060200191505060405180910390fd5b6000151582151514611210576040517f08c379a000000000000000000000000000000000000000000000000000000000815260040180806020018281038252601e8152602001807f546865204d6f6e65792057617320616c726561647920526566756e646564000081525060200191505060405180910390fd5b600160009054906101000a900473ffffffffffffffffffffffffffffffffffffffff1673ffffffffffffffffffffffffffffffffffffffff163373ffffffffffffffffffffffffffffffffffffffff16146112b6576040517f08c379a00000000000000000000000000000000000000000000000000000000081526004018080602001828103825260398152602001806114c96039913960400191505060405180910390fd5b80606001513411611312576040517f08c379a00000000000000000000000000000000000000000000000000000000081526004018080602001828103825260248152602001806114a56024913960400191505060405180910390fd5b6001600560008673ffffffffffffffffffffffffffffffffffffffff1673ffffffffffffffffffffffffffffffffffffffff16815260200190815260200160002060006101000a81548160ff0219169083151502179055508373ffffffffffffffffffffffffffffffffffffffff166108fc349081150290604051600060405180830381858888f193505050501580156113b0573d6000803e3d6000fd5b5050505050565b60056020528060005260406000206000915054906101000a900460ff1681565b6040518060800160405280600081526020016060815260200160008152602001600081525090565b828054600181600116156101000203166002900490600052602060002090601f016020900481019282601f1061144057805160ff191683800117855561146e565b8280016001018555821561146e579182015b8281111561146d578251825591602001919060010190611452565b5b50905061147b919061147f565b5090565b6114a191905b8082111561149d576000816000905550600101611485565b5090565b9056fe5468652076616c75652073686f756c642062652067726561746572207468616e206665654f6e6c79204f776e65722063616e20726566756e6420746865206d6f6e657920666f722043616e63656c6c6564204170706f696e746d656e74a265627a7a72315820072e663c70c59b0bc7dca9139e6ac2c64c296597641cf12caa6980696fb6396d64736f6c63430005100032",
  "source": "pragma solidity >=0.4.21 <0.7.0;\n\ncontract Ethbay{\n    string public hospitalName;\n    address payable owner;\n    uint public appointCount = 0;\n\n    struct Appointment{\n        uint id;\n        string patientName;\n        uint age;\n        uint fee;\n    }\n\n    mapping(address => Appointment) public Appointments;\n    mapping(address => bool) public isAppointed;\n    mapping(address => bool) public isRefunded;\n\n    event makeAppointment(\n        uint id,\n        string patientName,\n        uint age,\n        uint fee\n    );\n\n    event cancelAppointment(\n        uint id,\n        string patientName,\n        uint age,\n        uint fee\n    );\n\n    constructor() public{\n        hospitalName = \"EECE571G HOSPITAL\";\n        owner = msg.sender;\n    }\n\n    function bookAppointment(string memory patientName, uint age,uint fee) public payable{\n        bool isBooked = isAppointed[msg.sender];\n        require(isBooked == false,\"You already have an appointment\");\n        require(bytes(patientName).length>0,\"Patient Name cannot be empty\");\n        require(age>0,\"Age should be greater than 0\");\n        require(fee>0,\"Fee should be greater than 0\");\n        require(msg.value >= fee,\"Value should be greater than fee\");\n        require(msg.sender != owner,\"Owner cannot book appointment\");\n        isAppointed[msg.sender] = true;\n        appointCount = appointCount + 1;\n        Appointments[msg.sender] = Appointment(appointCount,patientName,age,fee);\n        owner.transfer(msg.value); // Payment Made\n        isRefunded[msg.sender] = false;\n        emit makeAppointment(appointCount,patientName,age,fee);\n    }\n\n    function cancelTheAppointment() public{\n        bool isBooked = isAppointed[msg.sender];\n        require(isBooked == true,\"You dont have any appointment\");\n        require(msg.sender != owner,\"Owner cannot book appointment\");\n        Appointment memory data = Appointments[msg.sender];\n        data.patientName = \"\";\n        isAppointed[msg.sender] = false;\n        // msg.sender.transfer(2);\n        emit cancelAppointment(data.id,data.patientName,data.age,data.fee);\n\n    }\n\n    function refund(address payable customer) public payable{\n        bool isBooked = isAppointed[customer];\n        bool re = isRefunded[customer];\n        Appointment memory data = Appointments[customer];\n        require(isBooked == false,\"You did not cancel appointment\");\n        require(re == false,\"The Money Was already Refunded\");\n        require(msg.sender == owner,\"Only Owner can refund the money for Cancelled Appointment\");\n        require(msg.value > data.fee,\"The value should be greater than fee\");\n        isRefunded[customer] = true;\n        customer.transfer(msg.value);\n    }\n}\n\n// contract Ethbay {\n//     string public storeName;\n//     uint public totalNumber = 0;\n    // struct Item {\n    //     uint itemId;\n    //     string itemName;\n    //     uint itemPrice;\n    //     address payable itemOwner;\n    //     bool isItemSold;\n    // }\n\n//     mapping(uint => Item) public items;\n\n//     event ItemReady(\n//         uint itemId,\n//         string itemName,\n//         uint itemPrice,\n//         address payable itemOwner,\n//         bool isItemSold\n//     );\n\n//     event ItemSold(\n//         uint itemId,\n//         string itemName,\n//         uint itemPrice,\n//         address payable itemOwner,\n//         bool isItemSold\n//     );\n\n//     constructor() public {\n//         storeName = \"EECE571 ETHBAY.COM\";\n//     }\n\n//     function createItem(string memory _itemName, uint _itemPrice) public {\n//         require(bytes(_itemName).length > 0, \"Item's name is required!\");\n//         require(_itemPrice > 0, \"Item's price is required!\");\n//         totalNumber++;\n//         items[totalNumber] = Item(totalNumber, _itemName, _itemPrice, msg.sender, false);\n//         emit ItemReady(totalNumber, _itemName, _itemPrice, msg.sender, false);\n//     }\n\n//     function buyItem(uint _itemId) public payable {\n//         Item memory _item = items[_itemId];\n//         address payable _seller = _item.itemOwner;\n//         require(_item.itemId > 0 && _item.itemId <= totalNumber, \"Item should be ready to sell!\");\n//         require(msg.value >= _item.itemPrice, \"Payment should be enough!\" );\n//         require(!_item.isItemSold, \"Item should not been sold yet!\");\n//         require(msg.sender != _seller, \"Cannot buy himself/herself\");\n\n//         _item.itemOwner = msg.sender;\n//         _item.isItemSold = true;\n//         items[_itemId] = _item;\n//         _seller.transfer(msg.value);\n//         emit ItemSold(_item.itemId, _item.itemName, _item.itemPrice, msg.sender, true);\n//     }\n\n// }",
  "sourcePath": "G:\\Blockchain\\MidTerm\\src\\contracts\\Ethbay.sol",
  "compiler": {
    "name": "solc",
    "version": "0.5.16+commit.9c3226ce.Emscripten.clang"
  },
  "schemaVersion": "3.0.23",
  "updatedAt": "2020-02-23T23:51:43.978Z",
  "devdoc": {
    "methods": {}
  },
  "userdoc": {
    "methods": {}
  }
}