{
  "contractName": "practice",
  "abi": [
    {
      "inputs": [],
      "payable": false,
      "stateMutability": "nonpayable",
      "type": "constructor"
    },
    {
      "anonymous": false,
      "inputs": [
        {
          "indexed": false,
          "internalType": "uint256",
          "name": "id",
          "type": "uint256"
        },
        {
          "indexed": false,
          "internalType": "string",
          "name": "itemName",
          "type": "string"
        },
        {
          "indexed": false,
          "internalType": "address",
          "name": "owner",
          "type": "address"
        },
        {
          "indexed": false,
          "internalType": "bool",
          "name": "isSold",
          "type": "bool"
        },
        {
          "indexed": false,
          "internalType": "uint256",
          "name": "price",
          "type": "uint256"
        }
      ],
      "name": "buyItemEvent",
      "type": "event"
    },
    {
      "anonymous": false,
      "inputs": [
        {
          "indexed": false,
          "internalType": "uint256",
          "name": "id",
          "type": "uint256"
        },
        {
          "indexed": false,
          "internalType": "string",
          "name": "itemName",
          "type": "string"
        },
        {
          "indexed": false,
          "internalType": "address",
          "name": "owner",
          "type": "address"
        },
        {
          "indexed": false,
          "internalType": "bool",
          "name": "isSold",
          "type": "bool"
        },
        {
          "indexed": false,
          "internalType": "uint256",
          "name": "price",
          "type": "uint256"
        }
      ],
      "name": "createItemEvent",
      "type": "event"
    },
    {
      "constant": true,
      "inputs": [],
      "name": "deployer",
      "outputs": [
        {
          "internalType": "address payable",
          "name": "",
          "type": "address"
        }
      ],
      "payable": false,
      "stateMutability": "view",
      "type": "function"
    },
    {
      "constant": true,
      "inputs": [],
      "name": "itemId",
      "outputs": [
        {
          "internalType": "uint256",
          "name": "",
          "type": "uint256"
        }
      ],
      "payable": false,
      "stateMutability": "view",
      "type": "function"
    },
    {
      "constant": true,
      "inputs": [
        {
          "internalType": "uint256",
          "name": "",
          "type": "uint256"
        }
      ],
      "name": "items",
      "outputs": [
        {
          "internalType": "uint256",
          "name": "id",
          "type": "uint256"
        },
        {
          "internalType": "string",
          "name": "itemName",
          "type": "string"
        },
        {
          "internalType": "address payable",
          "name": "owner",
          "type": "address"
        },
        {
          "internalType": "bool",
          "name": "isSold",
          "type": "bool"
        },
        {
          "internalType": "uint256",
          "name": "price",
          "type": "uint256"
        }
      ],
      "payable": false,
      "stateMutability": "view",
      "type": "function"
    },
    {
      "constant": true,
      "inputs": [],
      "name": "storeName",
      "outputs": [
        {
          "internalType": "string",
          "name": "",
          "type": "string"
        }
      ],
      "payable": false,
      "stateMutability": "view",
      "type": "function"
    },
    {
      "constant": false,
      "inputs": [
        {
          "internalType": "string",
          "name": "name",
          "type": "string"
        },
        {
          "internalType": "uint256",
          "name": "price",
          "type": "uint256"
        }
      ],
      "name": "createItem",
      "outputs": [],
      "payable": false,
      "stateMutability": "nonpayable",
      "type": "function"
    },
    {
      "constant": false,
      "inputs": [
        {
          "internalType": "uint256",
          "name": "id",
          "type": "uint256"
        }
      ],
      "name": "buyItem",
      "outputs": [],
      "payable": true,
      "stateMutability": "payable",
      "type": "function"
    }
  ],
  "bytecode": "0x6080604052600060015534801561001557600080fd5b506040518060400160405280600a81526020017f546573742053746f726500000000000000000000000000000000000000000000815250600090805190602001906100619291906100a8565b5033600260006101000a81548173ffffffffffffffffffffffffffffffffffffffff021916908373ffffffffffffffffffffffffffffffffffffffff16021790555061014d565b828054600181600116156101000203166002900490600052602060002090601f016020900481019282601f106100e957805160ff1916838001178555610117565b82800160010185558215610117579182015b828111156101165782518255916020019190600101906100fb565b5b5090506101249190610128565b5090565b61014a91905b8082111561014657600081600090555060010161012e565b5090565b90565b610f6e8061015c6000396000f3fe6080604052600436106100555760003560e01c8063521936e61461005a5780638c551742146100ea578063bfb231d2146101bc578063ca6158cb146102bc578063d5f39488146102e7578063e7fb74c71461033e575b600080fd5b34801561006657600080fd5b5061006f61036c565b6040518080602001828103825283818151815260200191508051906020019080838360005b838110156100af578082015181840152602081019050610094565b50505050905090810190601f1680156100dc5780820380516001836020036101000a031916815260200191505b509250505060405180910390f35b3480156100f657600080fd5b506101ba6004803603604081101561010d57600080fd5b810190808035906020019064010000000081111561012a57600080fd5b82018360208201111561013c57600080fd5b8035906020019184600183028401116401000000008311171561015e57600080fd5b91908080601f016020809104026020016040519081016040528093929190818152602001838380828437600081840152601f19601f8201169050808301925050505050505091929192908035906020019092919050505061040a565b005b3480156101c857600080fd5b506101f5600480360360208110156101df57600080fd5b81019080803590602001909291905050506106ee565b60405180868152602001806020018573ffffffffffffffffffffffffffffffffffffffff1673ffffffffffffffffffffffffffffffffffffffff16815260200184151515158152602001838152602001828103825286818151815260200191508051906020019080838360005b8381101561027d578082015181840152602081019050610262565b50505050905090810190601f1680156102aa5780820380516001836020036101000a031916815260200191505b50965050505050505060405180910390f35b3480156102c857600080fd5b506102d16107e9565b6040518082815260200191505060405180910390f35b3480156102f357600080fd5b506102fc6107ef565b604051808273ffffffffffffffffffffffffffffffffffffffff1673ffffffffffffffffffffffffffffffffffffffff16815260200191505060405180910390f35b61036a6004803603602081101561035457600080fd5b8101908080359060200190929190505050610815565b005b60008054600181600116156101000203166002900480601f0160208091040260200160405190810160405280929190818152602001828054600181600116156101000203166002900480156104025780601f106103d757610100808354040283529160200191610402565b820191906000526020600020905b8154815290600101906020018083116103e557829003601f168201915b505050505081565b6000825111610481576040517f08c379a00000000000000000000000000000000000000000000000000000000081526004018080602001828103825260198152602001807f4974656d206e616d652043616e6e6f7420626520456d7074790000000000000081525060200191505060405180910390fd5b600081116104f7576040517f08c379a000000000000000000000000000000000000000000000000000000000815260040180806020018281038252601e8152602001807f50726963652073686f756c642062652067726561746572207468616e2030000081525060200191505060405180910390fd5b6001600081548092919060010191905055506040518060a0016040528060015481526020018381526020013373ffffffffffffffffffffffffffffffffffffffff16815260200160001515815260200182815250600360006001548152602001908152602001600020600082015181600001556020820151816001019080519060200190610586929190610def565b5060408201518160020160006101000a81548173ffffffffffffffffffffffffffffffffffffffff021916908373ffffffffffffffffffffffffffffffffffffffff16021790555060608201518160020160146101000a81548160ff021916908315150217905550608082015181600301559050507fe70a3bc16c82cc64ee4c34483d24449d575e251480f62aa35d51c28b2bfd1649600154833360008560405180868152602001806020018573ffffffffffffffffffffffffffffffffffffffff1673ffffffffffffffffffffffffffffffffffffffff16815260200184151515158152602001838152602001828103825286818151815260200191508051906020019080838360005b838110156106ac578082015181840152602081019050610691565b50505050905090810190601f1680156106d95780820380516001836020036101000a031916815260200191505b50965050505050505060405180910390a15050565b6003602052806000526040600020600091509050806000015490806001018054600181600116156101000203166002900480601f0160208091040260200160405190810160405280929190818152602001828054600181600116156101000203166002900480156107a05780601f10610775576101008083540402835291602001916107a0565b820191906000526020600020905b81548152906001019060200180831161078357829003601f168201915b5050505050908060020160009054906101000a900473ffffffffffffffffffffffffffffffffffffffff16908060020160149054906101000a900460ff16908060030154905085565b60015481565b600260009054906101000a900473ffffffffffffffffffffffffffffffffffffffff1681565b6000339050610822610e6f565b600360008481526020019081526020016000206040518060a001604052908160008201548152602001600182018054600181600116156101000203166002900480601f0160208091040260200160405190810160405280929190818152602001828054600181600116156101000203166002900480156108e35780601f106108b8576101008083540402835291602001916108e3565b820191906000526020600020905b8154815290600101906020018083116108c657829003601f168201915b505050505081526020016002820160009054906101000a900473ffffffffffffffffffffffffffffffffffffffff1673ffffffffffffffffffffffffffffffffffffffff1673ffffffffffffffffffffffffffffffffffffffff1681526020016002820160149054906101000a900460ff16151515158152602001600382015481525050905060008311801561097b57506001548311155b6109ed576040517f08c379a00000000000000000000000000000000000000000000000000000000081526004018080602001828103825260128152602001807f4974656d206e6f7420617661696c61626c65000000000000000000000000000081525060200191505060405180910390fd5b80608001518273ffffffffffffffffffffffffffffffffffffffff163110158015610a1c575080608001513410155b610a71576040517f08c379a0000000000000000000000000000000000000000000000000000000008152600401808060200182810382526039815260200180610f016039913960400191505060405180910390fd5b806040015173ffffffffffffffffffffffffffffffffffffffff168273ffffffffffffffffffffffffffffffffffffffff161415610afa576040517f08c379a0000000000000000000000000000000000000000000000000000000008152600401808060200182810382526025815260200180610edc6025913960400191505060405180910390fd5b600015158160600151151514610b78576040517f08c379a00000000000000000000000000000000000000000000000000000000081526004018080602001828103825260118152602001807f4974656d20616c726561647920736f6c6400000000000000000000000000000081525060200191505060405180910390fd5b60016003600085815260200190815260200160002060020160146101000a81548160ff021916908315150217905550806040015173ffffffffffffffffffffffffffffffffffffffff166108fc349081150290604051600060405180830381858888f19350505050158015610bf1573d6000803e3d6000fd5b50816003600085815260200190815260200160002060020160006101000a81548173ffffffffffffffffffffffffffffffffffffffff021916908373ffffffffffffffffffffffffffffffffffffffff1602179055507fe70a3bc16c82cc64ee4c34483d24449d575e251480f62aa35d51c28b2bfd16496003600085815260200190815260200160002060000154600360008681526020019081526020016000206001016003600087815260200190815260200160002060020160009054906101000a900473ffffffffffffffffffffffffffffffffffffffff166003600088815260200190815260200160002060020160149054906101000a900460ff16600360008981526020019081526020016000206003015460405180868152602001806020018573ffffffffffffffffffffffffffffffffffffffff1673ffffffffffffffffffffffffffffffffffffffff16815260200184151515158152602001838152602001828103825286818154600181600116156101000203166002900481526020019150805460018160011615610100020316600290048015610dd85780601f10610dad57610100808354040283529160200191610dd8565b820191906000526020600020905b815481529060010190602001808311610dbb57829003601f168201915b5050965050505050505060405180910390a1505050565b828054600181600116156101000203166002900490600052602060002090601f016020900481019282601f10610e3057805160ff1916838001178555610e5e565b82800160010185558215610e5e579182015b82811115610e5d578251825591602001919060010190610e42565b5b509050610e6b9190610eb6565b5090565b6040518060a001604052806000815260200160608152602001600073ffffffffffffffffffffffffffffffffffffffff168152602001600015158152602001600081525090565b610ed891905b80821115610ed4576000816000905550600101610ebc565b5090565b9056fe4f776e6572206f66206974656d2063616e6e6f742062652062757965722068696d73656c664569746865722042616c616e6365206f722076616c756520737065636966696564206973206c657373207468616e206974656d207072696365a265627a7a7231582081dde98e5338f451f94db6998a79701b7caabdd7585a9c6bcd6d323cf2b52dae64736f6c63430005100032",
  "source": "pragma solidity >0.4.21 < 0.7.0;\r\n\r\ncontract practice{\r\n    string public storeName;\r\n    uint256 public itemId = 0;\r\n    address payable public deployer;\r\n\r\n    constructor() public{\r\n        storeName = \"Test Store\";\r\n        deployer = msg.sender;\r\n    }\r\n\r\n    struct item {\r\n        uint256 id;\r\n        string itemName;\r\n        address payable owner;\r\n        bool isSold;\r\n        uint price;\r\n    }\r\n\r\n    mapping(uint256 => item) public items;\r\n\r\n    event createItemEvent(\r\n        uint256 id,\r\n        string itemName,\r\n        address owner,\r\n        bool isSold,\r\n        uint price\r\n    );\r\n\r\n    event buyItemEvent(\r\n        uint256 id,\r\n        string itemName,\r\n        address owner,\r\n        bool isSold,\r\n        uint price\r\n    );\r\n    \r\n    function createItem(string memory name,uint256 price) public{\r\n        require(bytes(name).length > 0,\"Item name Cannot be Empty\");\r\n        require(price > 0,\"Price should be greater than 0\");\r\n        itemId++;\r\n        items[itemId] = item(itemId,name,msg.sender,false,price);\r\n        emit createItemEvent(itemId,name,msg.sender,false,price);\r\n    }\r\n\r\n    function buyItem(uint256 id) public payable{\r\n        address payable buyer = msg.sender;\r\n        item memory _item = items[id];\r\n        require(id>0 && id <= itemId,\"Item not available\");\r\n        require(buyer.balance >= _item.price && msg.value >= _item.price,\"Either Balance or value specified is less than item price\");\r\n        require(buyer != _item.owner,\"Owner of item cannot be buyer himself\");\r\n        require(_item.isSold == false,\"Item already sold\");\r\n        items[id].isSold = true;\r\n        _item.owner.transfer(msg.value);\r\n        items[id].owner = buyer;\r\n        emit createItemEvent(items[id].id,items[id].itemName,items[id].owner,items[id].isSold,items[id].price);\r\n    }\r\n}",
  "sourcePath": "G:\\Blockchain\\MidTerm\\src\\contracts\\practice.sol",
  "compiler": {
    "name": "solc",
    "version": "0.5.16+commit.9c3226ce.Emscripten.clang"
  },
  "schemaVersion": "3.0.23",
  "updatedAt": "2020-02-23T23:51:43.984Z",
  "devdoc": {
    "methods": {}
  },
  "userdoc": {
    "methods": {}
  }
}